:020000040800F2
:10000000E006002001010008ED540008D14300087B
:10001000E95400087D030008CD5F000800000000DF
:100020000000000000000000000000004157000830
:100030006D060008000000000157000899570008ED
:100040001B0100081B0100081B0100081B01000820
:100050001B0100081B0100081B0100081B01000810
:100060001B0100081B0100081B0100081B01000800
:100070001B0100081B0100081B0100081B010008F0
:100080001B0100081B0100082D0200081B010008CD
:100090001B0100081B0100081B0100081B010008D0
:1000A0001B0100081B0100081B0100081B010008C0
:1000B0001B010008355800081B0100081B0100083F
:1000C0001B0100081B0100081B0100081B010008A0
:1000D0001B0100081B0100081B0100081B01000890
:1000E0001B0100081B0100081B010008DFF80CD0F1
:1000F00000F08AF80048004765650008E006002027
:100100000648804706480047FEE7FEE7FEE7FEE7B1
:10011000FEE7FEE7FEE7FEE7FEE7FEE731580008F0
:10012000ED000008D2B201E000F8012B491EFBD21D
:1001300070470022F6E710B513460A4604461946F2
:10014000FFF7F0FF204610BD80EA010210B502F073
:100150000043400022D04A001FD0010E01EB126183
:10016000C0F35600C2F3560240F4000042F400020D
:10017000A0FB022000047F39140400D0401C50EA88
:10018000124001D44000491EC2B20C0604EBD0104C
:10019000401C4008802A02D003E0002010BD20F05F
:1001A0000100002900DA0020184310BD00F00042D1
:1001B00020F00040C10DC0F3160040F400007F297C
:1001C00001DA00207047962903DCC1F19601C8408E
:1001D00001E096398840002AF4D04042704720F070
:1001E0000040C10DC0F3160040F400007F2901DA81
:1001F00000207047962903DCC1F19601C840704782
:100200009639884070470000064C074D06E0E068CC
:1002100040F0010394E8070098471034AC42F6D34D
:10022000FFF768FF587C0008787C000880B540F232
:100230000810C2F2000000F023FE80BD80B584B03B
:10024000029000200190029800688068C00770B397
:10025000FFE702980168886820F00100886001F0DB
:1002600071FC0190FFE7029800688068C007E8B160
:10027000FFE701F067FC0199401A032815D3FFE757
:10028000029800688068C00770B1FFE70299886A29
:1002900040F0100088620299C86A40F00100C8620C
:1002A00001208DF80F0006E0FFE7DCE7FFE7002004
:1002B0008DF80F00FFE79DF80F0004B080BD00002F
:1002C00080B584B0029000200190009002980068F0
:1002D0008068C007002849D1FFE702980168886854
:1002E00040F00100886040F20800C2F2000000689F
:1002F0004DF68361C4F21B31A0FB0110800C00900D
:10030000FFE7009820B1FFE7009801380090F8E778
:1003100001F018FC0190FFE7029800688068C007B0
:1003200018BBFFE701F00EFC0199401A03281BD30C
:10033000FFE7029800688068C007A0B9FFE702994C
:10034000886A40F0100088620299C86A40F0010093
:10035000C862FFE70299002081F82400FFE701202E
:100360008DF80F0006E0FFE7D6E7FFE700208DF8E5
:100370000F00FFE79DF80F0004B080BDFFE7FEE728
:1003800080B582B00190019940F2C000C2F2000035
:1003900005F0E4F802B080BD80B582B040F2900074
:1003A000C2F2000006F04CF840F20001C2F2000177
:1003B000096848430190019806F00CFC40F2902136
:1003C000C2F200010860019802B080BD80B584B01F
:1003D00040F24800C2F200000168019140680090BC
:1003E00005F058FF00990246019805F0C3FF0390FD
:1003F000039940F26000C2F2000004F037FD029061
:10040000029806F0E7FB40F28C21C2F2000108607E
:10041000029804B080BD000084B0DDF810C00390E5
:10042000029101920093039840F2C001C2F20001D0
:10043000086002984860019888600098C860049835
:10044000086104B07047000084B0039002910192EB
:100450000093039840F2E401C2F2000108600298A0
:100460004860019888600098C86004B07047000038
:1004700084B0DDF810C003900291019200930398BC
:1004800040F2AC21C2F20001086002984860019875
:1004900088600098C8600498086104B07047000044
:1004A00080B582B00190019940F2AC20C2F2000008
:1004B00005F054F802B080BD80B582B040F29000E3
:1004C000C2F2000006F02CF80190019840F2000101
:1004D000C2F200010968414340F27000C2F200001C
:1004E00004F0C4FC0090009806F074FB40F29421E4
:1004F000C2F200010860009802B080BD80B582B0F1
:100500000190FFF763FF0199411A40F2E400C2F243
:10051000000005F023F8009005F0BCFE01460098AD
:1005200006F0C2F802B080BD80B584B00390039895
:100530000190FFF731FF01460198401A4AF2DC5161
:10054000C0F21C0106F0C4FAFFF71AFF0290FFF791
:10055000B3FF01460298401AFFF7A2FFFFF7CEFF54
:1005600004B080BD80B588B00790079840F2D021D4
:10057000C2F20001086069464FF4203004904860E0
:1005800048F20000C7F6FF700590086040F2AC200A
:10059000C2F200004FF480310391002306931A4603
:1005A00005F088F803990598069B6A464FF4481CA5
:1005B000C2F804C0106040F2C000C2F200001A4647
:1005C00005F078F8049A0598069B69464A60086029
:1005D00040F2E400C2F2000049F699111A4605F013
:1005E00069F840F27000C2F200004FF6E85104F0E2
:1005F00059FC40F26000C2F2000040F6B83104F04D
:1006000051FC40F28000C2F200004FF4FA7104F095
:1006100049FC08B080BD000080B584B00390029111
:10062000039840F20401C2F200010860029840F20F
:100630000001C2F2000108604FF4803045F62F310E
:10064000C0F20201019106F003F94FF4FA6005F0DF
:10065000BFFE05F01FFE019940F2D822C2F200024F
:100660001060002006F0F4F804B080BD7047000070
:1006700081B0EFF3108072B60090FFE7FEE7000054
:100680004EF21000CEF200000068C0F30040704748
:1006900080B586B0049000208DF80F000190FFE730
:1006A000049890F82400012804D1FFE702208DF877
:1006B0001700AEE00499012081F82400FFE7FFE76E
:1006C0000498FFF7BBFD8DF80F000498FFF7F8FDC5
:1006D0008DF80F009DF80F00002840F08F80FFE795
:1006E0000498806A40F0020020F4885004998862DF
:1006F00040F20800C2F2000000680090022001F001
:10070000E5FF01460098B0FBF1F040000190FFE7E3
:10071000019820B1FFE7019801380190F8E70498AB
:100720000168886840F00800886001F00BFA0290C8
:10073000FFE70498006880680007002822D5FFE7DB
:1007400001F000FA0299401A0B281AD3FFE7049827
:10075000006880680007002812D5FFE70498806AC7
:1007600040F0100020F0020004998862FFE704992D
:10077000002081F82400FFE701208DF8170048E0F1
:10078000FFE7D6E704980168886840F004008860B5
:1007900001F0D8F90290FFE70498006880684007EC
:1007A000002822D5FFE701F0CDF90299401A0B2865
:1007B0001AD3FFE70498006880684007002812D524
:1007C000FFE70498806A40F0100020F002000499CE
:1007D0008862FFE70499002081F82400FFE70120E8
:1007E0008DF8170015E0FFE7D6E70498806A40F01F
:1007F000010020F0020004998862FFE7FFE70499F6
:10080000002081F82400FFE79DF80F008DF8170005
:10081000FFE79DF8170006B080BD000086B0049089
:10082000039100208DF80B0001900498806808B1B6
:10083000FFE7FFE7FFE7049890F82400012804D1C0
:10084000FFE702208DF8170077E10499012081F875
:100850002400FFE7FFE704988068E0B9FFE703980A
:10086000406801280DD1FFE704980068806B6FF3A2
:1008700015000399096840EAC13004990968886342
:1008800008E00499886A40F02000886201208DF811
:100890000B00FFE739E003994868096988421FD8CF
:1008A000FFE704980068806B039B1A685968D3F8C7
:1008B00010C0A1EB0C0101EB810101F10F031F211D
:1008C0009940884320F440100021CFF6F07101EBED
:1008D0000C519A401143084304990968886313E056
:1008E00004980068806B039A51681269891A01EBB9
:1008F000810101F10F021F219140884320F4401033
:10090000049909688863FFE7FFE704980068806836
:10091000C00768B9FFE704980068806847F20101E2
:100920008843039989690843049909688860FFE747
:100930000398407D012817D1FFE703988069B0F53F
:10094000E04F07D1FFE704980168486840F48060F1
:10095000486008E00499886A40F02000886201201D
:100960008DF80B00FFE7FFE70398007D012815D104
:10097000FFE70398407D38B9FFE7049801684868AD
:1009800040F48050486008E00499886A40F02000F4
:10099000886201208DF80B00FFE7FFE703980068ED
:1009A0000A2812D3FFE704980068C06803990A6810
:1009B000896802EB42021E3A072393409843914014
:1009C000084304990968C86010E004980068006949
:1009D00003990A68896802EB42020723934098430F
:1009E00091400843049909680861FFE7039800688B
:1009F000102805D0FFE703980068112807D1FFE70A
:100A000004980168886840F400008860FFE7039854
:100A1000406801380146009103282CD80099DFE88E
:100A200001F0020F1C2904980068406940F6FF712C
:100A300088430399C968084304990968486127E015
:100A400004980068806940F6FF7188430399C9687B
:100A500008430499096888611AE004980068C0692D
:100A600040F6FF7188430399C968084304990968EF
:100A7000C8610DE0FFE704980068006A40F6FF7166
:100A800088430399C9680843049909680862FFE725
:100A900003980068102805D0FFE703980068112824
:100AA00040D1FFE70498006842F20041C4F201011E
:100AB00088422DD1FFE70498006880680002002872
:100AC00025D4FFE704980168886840F40000886036
:100AD00003980068102819D1FFE740F20800C2F21D
:100AE000000000684DF68361C4F21B31A0FB0110C9
:100AF000800C00EB800040000190FFE7019820B1DE
:100B0000FFE7019801380190F8E7FFE7FFE708E009
:100B10000499886A40F02000886201208DF80B005B
:100B2000FFE7FFE7FFE70499002081F82400FFE7D3
:100B30009DF80B008DF81700FFE79DF8170006B031
:100B40007047000080B592B0119040F60040C4F2AA
:100B50000100012100F0CAFF11980068C16B40F24A
:100B60004000C2F200000D90018011990968096CE3
:100B7000418011990968496C81800088C0F5006046
:100B8000C00344F2D251C0F274110C9105F058FF29
:100B90000C9902460D9810924088C0F50060C00381
:100BA00005F04EFF0C9902460D980F928088C0F513
:100BB0000060C00305F044FF0E9010980F990E9A44
:100BC00005F0FCFC05F082FC05F0ECFC40F2A420F2
:100BD000C2F200000078002800F09880FFE740F2A1
:100BE0001800C2F2000000684FF08E410791FFF735
:100BF000ABFAFFF7DBFA0799049040F21000C2F25B
:100C000000000068FFF7A0FAFFF7D0FA07990290FA
:100C100040F20C00C2F200000068FFF795FAFFF7FF
:100C2000C5FA0799039040F21400C2F20000006870
:100C3000FFF78AFAFFF7BAFA0299039A0346049873
:100C4000EC46CCF8003048F20003C7F6FF730A9375
:100C5000FFF7E2FB079940F22400C2F200000068AF
:100C6000FFF772FAFFF7A2FA0799069040F2200008
:100C7000C2F200000068FFF767FAFFF797FA0799DA
:100C8000059040F21C00C2F200000068FFF75CFA19
:100C9000FFF78CFA05990A9B02460698FFF7D4FBEA
:100CA000079940F23C00C2F200000068FFF74CFADE
:100CB000FFF77CFA07990B9040F23400C2F2000073
:100CC0000068FFF741FAFFF771FA0799089040F2C0
:100CD0003000C2F200000068FFF736FAFFF766FA4C
:100CE0000799099040F23800C2F200000068FFF74F
:100CF0002BFAFFF75BFA0899099A0A9B84460B982E
:100D0000EE46CEF800C0FFF7B3FBFFE740F2A020AD
:100D1000C2F2000000684FF08E41FFF715FAFFF7AE
:100D200045FAFFF701FC12B080BD000080B584B029
:100D3000029000208DF80700FFE7029890F8240049
:100D4000012804D1FFE702208DF80F008FE00299FF
:100D5000012081F82400FFE7FFE70298FFF7B0FACF
:100D60008DF807009DF80700002874D1FFE702986E
:100D7000806A40F4805042F20101884302998862FF
:100D80000298006842F60001C4F20101884209D1CC
:100D9000FFE742F20440C4F20100006810F4702F33
:100DA00003D008E0002030B9FFE70299886A20F4F8
:100DB0008010886205E00299886A40F48010886299
:100DC000FFE70298806AC005002804D4FFE7029973
:100DD0000020C862FFE7FFE70299002081F82400A5
:100DE000FFE7029801686FF004000860029800684D
:100DF0004068400500282DD4FFE70298006880680D
:100E000000F4E040B0F5E04F1CD1FFE70298006825
:100E100042F60001C4F20101884209D1FFE742F223
:100E20000440C4F20100006810F4702F03D009E000
:100E3000002038B9FFE702980168886840F4021082
:100E4000886006E002980168886840F40040886085
:100E5000FFE7FFE706E0FFE70299002081F82400A2
:100E6000FFE7FFE79DF807008DF80F00FFE79DF80B
:100E70000F0004B080BD000081B0009001B0704749
:100E800080B584B0039003980068006802900398CE
:100E90000068406801909DF804008006002841D554
:100EA000FFE79DF80800800700283AD5FFE7039880
:100EB000806AC006002806D4FFE70399886A40F4D8
:100EC00000708862FFE703980068806800F4602083
:100ED000B0F5602F1CD1FFE70398007BC0B9FFE796
:100EE00003980168486820F0200048600399886AE8
:100EF00020F4807088620398806AC004002806D4B9
:100F0000FFE70399886A40F001008862FFE7FFE786
:100F10000398FFF7B1FF039801686FF012000860B3
:100F2000FFE7FFE79DF804000006002851D5FFE722
:100F30009DF80800400700284AD5FFE70398806A1B
:100F4000C006002806D4FFE70399886A40F40050E1
:100F50008862FFE703980068806800F4E040B0F51D
:100F6000E04F14D0FFE70398006840684005002870
:100F700025D4FFE703980068806800F46020B0F58E
:100F8000602F1CD1FFE70398007BC0B9FFE70398EF
:100F90000168486820F0800048600399886A20F45E
:100FA000805088620398806AC005002806D4FFE755
:100FB0000399886A40F001008862FFE7FFE7039821
:100FC000FFF7C0FD039801686FF00C000860FFE7B1
:100FD000FFE79DF804004006002814D5FFE79DF8C0
:100FE0000800C00770B1FFE70399886A40F48030B9
:100FF0008862039800F014F9039801686FF001000B
:101000000860FFE7FFE704B080BD000080B588B04E
:10101000069000208DF81700049003900290069827
:1010200020B9FFE701208DF81F00F4E006988068E2
:1010300030B1FFE70698007D08B1FFE7FFE7FFE763
:101040000698806A50B9FFE706990020C8620699A1
:1010500081F82400069800F0E7F8FFE70698FFF70C
:10106000EDF88DF817000698806AC006002800F198
:10107000C480FFE79DF81700002840F0BE80FFE71E
:101080000698806A40F0020020F488500699886231
:1010900006994868CA691043097B40EA41010398F0
:1010A00008430390069881680120B1F5807F019084
:1010B00008D0FFE7069880680138B0FA80F0400950
:1010C0000190FFE701990498CA0740F48071002A53
:1010D00018BF084604900698007D01281ED1FFE73E
:1010E0000698007B70B9FFE7069881694EF2000010
:1010F000CFF6FF7000EB41300499084340F40060E4
:1011000004900AE00699886A40F0200088620699F7
:10111000C86A40F00100C862FFE7FFE70698006870
:10112000406820F4694004990843069909684860BA
:101130000698006880684FF2FD71CFF6E1710840B3
:101140000399084306990968886006988168012018
:10115000B1F5807F009008D0FFE7069880680138DD
:10116000B0FA80F040090090FFE7009800F001001D
:10117000002818BF4FF48070B0F5807F09D1FFE7D9
:10118000069801690020CFF6F07000EB0150029044
:10119000FFE706980068C06A20F4700002990843CF
:1011A00006990968C86206980068806840F6FE6182
:1011B000CFF61F710840039988420CD1FFE70699CA
:1011C0000020C8620698806A40F0010020F002000A
:1011D0000699886210E00698806A40F0100020F0BE
:1011E0000200069988620699C86A40F00100C86248
:1011F00001208DF81700FFE708E00699886A40F0A3
:101200001000886201208DF81700FFE79DF8170095
:101210008DF81F00FFE79DF81F0008B080BD00009B
:1012200081B0009001B0704780B588B00790002071
:1012300006900590049003900798006842F20041E0
:10124000C4F20101884233D1FFE7FFE741F2180001
:10125000C4F20200016841F400710160006800F40A
:10126000007002900298FFE7FFE741F21800C4F215
:101270000200016841F004010160006800F0040010
:1012800001900198FFE7F82003900320049040F6B6
:101290000000C4F2010003A900F098FA12200090A7
:1012A0000022114601F0F0F9009801F0E3F9FFE7A0
:1012B00008B080BD84B002900191029890F820009F
:1012C0008DF803009DF80300012805D0FFE79DF885
:1012D000030002280AD1FFE7019A029801684869D1
:1012E0001043486100208DF80F0008E00299486A19
:1012F00040F48020486201208DF80F00FFE79DF840
:101300000F0004B07047000086B004900391049869
:1013100000680190049890F820008DF803009DF873
:101320000300012806D0FFE79DF80300022840F0E3
:101330009B80FFE70199D1F8000240F00100C1F85D
:1013400000020398406900F01F01012088400290CC
:10135000029A0199D1F81C029043C1F81C0203982B
:10136000C069F0B9FFE7029A0199D1F80C029043E5
:10137000C1F80C02039A9088D168526940EA014092
:10138000019901EBC201C1F84002039A10889168EB
:10139000526940EA0140019901EBC201C1F84402DF
:1013A000FFE70398C06901281ED1FFE7029A01995F
:1013B000D1F80C021043C1F80C02039A908811680E
:1013C000526940EA0140019901EBC201C1F84002B3
:1013D000039A90899168526940EA0140019901EBB2
:1013E000C201C1F84402FFE70398806940B9FFE7F2
:1013F000029A0199D1F804029043C1F8040207E06F
:10140000029A0199D1F804021043C1F80402FFE7DF
:101410000398006940B9FFE7029A0199D1F81402D4
:101420009043C1F8140207E0029A0199D1F814021E
:101430001043C1F81402FFE70398006A012808D19D
:10144000FFE7029A0199D1F81C021043C1F81C026F
:10145000FFE70199D1F8000220F00100C1F8000275
:1014600000208DF8170008E00499486A40F48020B5
:10147000486201208DF81700FFE79DF8170006B0BD
:101480007047000080B584B00290029820B9FFE751
:1014900001208DF80F00E0E0029890F8200020B9BC
:1014A000FFE7029800F0DEF8FFE70298016808689D
:1014B00040F00100086000F045FB0190FFE7029852
:1014C00000684068C007A8B9FFE700F03BFB01993E
:1014D000401A0B280DD3FFE70299486A40F4003008
:1014E00048620299052081F8200001208DF80F0044
:1014F000B3E0E4E702980168086820F002000860A1
:1015000000F020FB0190FFE7029800684068800728
:10151000002815D5FFE700F015FB0199401A0B28AC
:101520000DD3FFE70299486A40F4003048620299FF
:10153000052081F8200001208DF80F008DE0E3E701
:101540000298007E012807D1FFE702980168086829
:1015500040F08000086006E002980168086820F00A
:1015600080000860FFE70298407E012807D1FFE76E
:1015700002980168086840F04000086006E00298A0
:101580000168086820F040000860FFE70298807E4C
:10159000012807D1FFE702980168086840F02000A1
:1015A000086006E002980168086820F020000860E2
:1015B000FFE70298C07E012807D1FFE70298016883
:1015C000086820F01000086006E0029801680868CA
:1015D00040F010000860FFE70298007F012807D163
:1015E000FFE702980168086840F00800086006E01C
:1015F00002980168086820F008000860FFE7029878
:10160000407F012807D1FFE702980168086840F091
:101610000400086006E002980168086820F00400F1
:101620000860FFE7029B19685A689868D3F80CC0F5
:1016300040EA0C00D3F810C040EA0C005B69184384
:10164000013A1043C861029900204862029A0121C0
:1016500082F820108DF80F00FFE79DF80F0004B00E
:1016600080BD000080B58AB00990002008900790E6
:10167000069005900998006846F20041C4F2000106
:10168000884239D1FFE7FFE741F21C00C4F20200B3
:10169000016841F000710160006800F00070049082
:1016A0000498FFE7FFE741F21800C4F20200016866
:1016B00041F004010160006800F004000390039809
:1016C000FFE74FF40060059000200690079040F679
:1016D0000000C4F20100019005A9029100F076F823
:1016E000019802994FF48052059202220692032239
:1016F000089200F06BF8FFE70AB080BD80B584B0B7
:101700000290029890F8200001282FD1FFE702995B
:10171000022081F8200002980168086820F001008A
:10172000086000F00FFA0190FFE702980068406837
:10173000C007A8B1FFE700F005FA0199401A0B288D
:101740000DD3FFE70299486A40F4003048620299DD
:10175000052081F8200001208DF80F000FE0E4E75C
:101760000299002048628DF80F0008E00299486A4B
:1017700040F40020486201208DF80F00FFE79DF83B
:101780000F0004B080BD000080B584B0039000F06D
:10179000D9F90290039801900198013048B1FFE710
:1017A00040F22800C2F2000001780198084401903C
:1017B000FFE7FFE700F0C6F90299401A0199884255
:1017C00001D2FFE7F6E704B080BD000090B00F90B3
:1017D0000E9100200D900990FFE70E9800680D997A
:1017E000C840002800F07F81FFE70D990120884064
:1017F0000C900E9800680C9908400B900B980C996F
:10180000884240F06C81FFE70E9840680590002800
:1018100051D0FFE7059801283AD0FFE70598022844
:101820003FD0FFE7059803285FD0FFE70598112810
:1018300032D0FFE70598122838D0FFE7059800213D
:10184000C1F21101884236D0FFE705980021C1F2AC
:10185000120188422FD0FFE705980021C1F2210133
:10186000884228D0FFE705980021C1F22201884272
:1018700021D0FFE705980021C1F2310188421AD03A
:10188000FFE705980021C1F23201884213D02FE012
:101890000E98C06809902CE00E98C068043009903A
:1018A00027E00E98C0680830099022E00E98C068C2
:1018B0000C3009901DE00E98806818B9FFE70420ED
:1018C000099011E00E988068012806D1FFE70820F2
:1018D00009900C980F99086105E0082009900C9870
:1018E0000F994861FFE7FFE703E00020099000E05F
:1018F000FFE70B98FF2803D8FFE70F98049003E059
:101900000F9804300490FFE7049808900B98FF2884
:1019100004D8FFE70D988000039006E00D996FF062
:101920001F0000EB81000390FFE7039807900898E1
:101930000068079A0F219140884309999140084314
:10194000089908600E98C079C006002840F1C6804A
:10195000FFE7FFE741F21800C4F20200016841F01E
:1019600001010160006800F0010006900698FFE7A1
:101970000D9820F003000821C4F2010140580A909C
:101980000D9800F0030081000F2000FA01F10A9881
:1019900088430A900F9840F60001C4F20101884282
:1019A00003D1FFE70020029026E00F9840F60041A7
:1019B000C4F20101884203D1FFE70120019018E041
:1019C0000F9841F20001C4F20101884203D1FFE700
:1019D000022000900AE00F9941F20042C4F2010295
:1019E0000420914208BF03200090FFE70098019077
:1019F000FFE701980290FFE702980D9901F00301BB
:101A0000890000FA01F10A9808430A900A980D9992
:101A100021F003010822C4F2010288500E98807957
:101A2000C006002809D5FFE70B9A40F20841C4F22E
:101A3000010108681043086008E00B9A40F2084171
:101A4000C4F20101086890430860FFE70E988079AE
:101A50008006002809D5FFE70B9A40F20C41C4F23A
:101A6000010108681043086008E00B9A40F20C413D
:101A7000C4F20101086890430860FFE70E9880797E
:101A80008007002809D5FFE70B9A40F20441C4F211
:101A9000010108681043086008E00B9A40F2044115
:101AA000C4F20101086890430860FFE70E9880794E
:101AB000C00748B1FFE70B9A40F20041C4F20101B0
:101AC00008681043086008E00B9A40F20041C4F235
:101AD0000101086890430860FFE7FFE7FFE70D9802
:101AE00001300D9079E610B07047000083B002908D
:101AF000ADF806100298C0680090009ABDF8060084
:101B000002EA0001904340EA01400299086103B0F3
:101B10007047000082B00190ADF802108DF80120EE
:101B20009DF8010028B1FFE7BDF8020001990861A6
:101B300005E0BDF80200000401990861FFE702B06A
:101B40007047000040F2A820C2F200000068704711
:101B500080B58EB00C900C9820B9FFE701208DF86D
:101B6000370043E10C9890F83D0040B9FFE70C992D
:101B7000002081F83C000C9800F09EFCFFE70C99D7
:101B8000242081F83D000C980168086820F00100CD
:101B900008600C980168086840F4004008600C98E0
:101BA0000168086820F40040086001F071F80A90AC
:101BB0000C98406848F2A061C0F2010188420BD83D
:101BC000FFE70A9948F28042C0F21E0200209142CB
:101BD00038BF012009900AE00A9940F60012C0F2CD
:101BE0003D020020914238BF01200990FFE709988B
:101BF000012804D1FFE701208DF83700F6E00A98AC
:101C00004DF68361C4F21B31A0FB0110800C0B90D8
:101C10000C980068406820F03F000B9908430C992D
:101C2000096848600C980068006A20F03F0008903E
:101C30000C98406848F2A061C0F20101884204D8C3
:101C4000FFE70B98013007900EE00B984FF4967168
:101C5000484344F6D351C1F26201A0FB01010120C7
:101C600000EB91100790FFE70898079908430C993B
:101C7000096808620C980068C0694CF6FF718843D7
:101C800006900C98406848F2A061C0F201018842B9
:101C90001FD8FFE70A9801380C9949684900B0FB42
:101CA000F1F001306FF31F30032803D8FFE7042061
:101CB00005900BE00A9801380C9949684900B0FB7F
:101CC000F1F001306FF31F300590FFE705980490A5
:101CD0004CE00C98806868B9FFE70A9801380C99C5
:101CE000496801EB4101B0FBF1F001306FF31F30A7
:101CF00003900DE00A9801380C9949681922514364
:101D0000B0FBF1F00130042161F31F300390FFE7D5
:101D10000398000518B9FFE70120029023E00C9812
:101D2000806868B9FFE70A9801380C99496801EBA7
:101D30004101B0FBF1F001306FF31F3001900DE075
:101D40000A9801380C99496819225143B0FBF1F007
:101D50000130042161F31F300190FFE7019840F446
:101D600000400290FFE702980490FFE7069804996C
:101D700008430C990968C8610C980068006820F055
:101D8000C0000C9B1968DA691B6A1A43104308608B
:101D90000C980068806848F2FF3188430C9A1168FB
:101DA000D36812691A43104388600C980068C068B1
:101DB00020F0FF000C9B19685A699B691A43104375
:101DC000C8600C980168086840F0010008600C9930
:101DD000002008640C9A202182F83D100C990863B9
:101DE0000C9981F83E008DF83700FFE79DF8370029
:101DF0000EB080BD80B590B0DDF848C00A90ADF857
:101E000026100892ADF81E3000200690FFF79AFECB
:101E100005900A9890F83D00202840F04182FFE7A5
:101E20000A9805996A4611600221C0F21001012248
:101E3000192302F0B7FC20B1FFE702208DF82F0034
:101E400032E2FFE70A9890F83C00012804D1FFE74E
:101E500002208DF82F0027E20A99012081F83C002A
:101E6000FFE7FFE70A9800680068C00738B9FFE796
:101E70000A980168086840F001000860FFE70A98C6
:101E80000168086820F4006008600A99222081F83F
:101E90003D000A99102081F83E000A99002008644C
:101EA00008980A994862BDF81E000A9948850A9860
:101EB000408D0A9908850A990020CFF6FF70C86204
:101EC0000A98BDF82610129A059B02F0B5FA20B1C7
:101ED000FFE701208DF82F00E6E10A98008DA0B9F8
:101EE000FFE7FFE7002004900A980068406904902B
:101EF0000A980068806904900498FFE70A980168CE
:101F0000086840F4007008605DE00A98008D0128C0
:101F10001FD1FFE70A980168086820F48060086014
:101F2000EFF3108072B60F90FFE7002003900A983D
:101F30000068406903900A980068806903900398DC
:101F4000FFE70A980168086840F40070086062B60C
:101F500038E00A98008D02281FD1FFE70A9801682F
:101F6000086840F400600860EFF3108072B60E90CD
:101F7000FFE7002002900A980068406902900A98E2
:101F80000068806902900298FFE70A980168086873
:101F900020F48060086062B613E00A98016808685F
:101FA00040F480600860FFE7002001900A98006814
:101FB000406901900A980068806901900198FFE7E4
:101FC000FFE7FFE7FFE7FFE70A98008D002800F032
:101FD0005581FFE70A98008D032800F20781FFE78B
:101FE0000A98008D01281ED1FFE70A981299059AD8
:101FF00002F006FD20B1FFE701208DF82F0053E12C
:102000000A98006800690A99496A08700A99486A3A
:10201000013048620A99088D013808850A99488D6F
:1020200001384885E1E00A98008D022841D1FFE798
:102030000A98129B05996A4611600421C0F20101B9
:10204000002202F0AFFB20B1FFE701208DF82F0046
:102050002AE1EFF3108072B60D900A9801680868C3
:1020600040F4007008600A98006800690A99496A9B
:1020700008700A99486A013048620A99088D013847
:1020800008850A99488D0138488562B60A98006823
:1020900000690A99496A08700A99486A01304862D9
:1020A0000A99088D013808850A99488D01384885B4
:1020B0009AE00A98129B05996A4611600421C0F2C1
:1020C0000101002202F06EFB20B1FFE701208DF834
:1020D0002F00E9E00A980168086820F48060086031
:1020E000EFF3108072B60C900A98006800690A99A4
:1020F000496A08700A99486A013048620A99088D4D
:10210000013808850A99488D0138488540F2080051
:10211000C2F20000006848F21F51C5F2EB11A0FBAB
:102120000110C00844F6D351C1F26201A0FB0110B6
:102130008009232148430690FFE70698013806905E
:102140000698D0B9FFE70A99002008630A9A20216F
:1021500082F83D100A9981F83E000A99086C40F017
:102160002000086462B6FFE70A99002081F83C006D
:10217000FFE701208DF82F0096E0FFE70A9800683E
:10218000406900F004010020B0EB910FD5D0FFE7CB
:102190000A980168086840F4007008600A980068AE
:1021A00000690A99496A08700A99486A01304862C8
:1021B0000A99088D013808850A99488D01384885A3
:1021C00062B60A98006800690A99496A08700A9913
:1021D000486A013048620A99088D013808850A99D1
:1021E000488D01384885FFE7FFE746E00A981299D5
:1021F000059A02F005FC20B1FFE701208DF82F00C1
:1022000052E00A98006800690A99496A08700A99B8
:10221000486A013048620A99088D013808850A9990
:10222000488D013848850A980068406900F004012B
:102230000120B0EB910F1FD1FFE70A98008D032812
:1022400007D1FFE70A980168086820F480600860F9
:10225000FFE70A98006800690A99496A08700A99B4
:10226000486A013048620A99088D013808850A9940
:10227000488D01384885FFE7FFE7A5E60A99202049
:1022800081F83D000A99002081F83E00FFE70A9995
:10229000002081F83C00FFE700208DF82F0003E0CC
:1022A00002208DF82F00FFE79DF82F0010B080BDB1
:1022B00080B588B0DDF828C00690ADF816100492FD
:1022C000ADF80E30FFF73EFC0290069890F83D0006
:1022D000202840F0E980FFE7069802996A461160DD
:1022E0000221C0F210010122192302F05BFA20B191
:1022F000FFE702208DF81F00DAE0FFE7069890F86C
:102300003C00012804D1FFE702208DF81F00CFE038
:102310000699012081F83C00FFE7FFE70698006876
:102320000068C00738B9FFE706980168086840F000
:1023300001000860FFE706980168086820F4006063
:1023400008600699212081F83D000699102081F847
:102350003E00069900200864049806994862BDF87A
:102360000E00069948850698408D069908850699BD
:102370000020CFF6FF70C8620698BDF816100A9AC2
:10238000029B02F02FF920B1FFE701208DF81F001A
:102390008EE0FFE7002001900698006840690190F8
:1023A00006980068806901900198FFE7FFE70698AA
:1023B000008D002860D0FFE706980A99029A02F083
:1023C0008DFB80B1FFE70698006C042807D1FFE77A
:1023D00006980168086840F400700860FFE7012073
:1023E0008DF81F0064E006980168406A0078086173
:1023F0000699486A013048620699488D0138488537
:102400000699088D0138088506980068406900F033
:1024100004010120B0EB910F16D1FFE70698008D63
:1024200090B1FFE706980168406A00780861069954
:10243000486A013048620699488D013848850699F6
:10244000088D01380885FFE706980A99029A02F07C
:1024500053F980B1FFE70698006C042807D1FFE725
:1024600006980168086840F400700860FFE70120E2
:102470008DF81F001CE09AE706980168086840F490
:10248000007008600699202081F83D000699002020
:1024900081F83E00FFE70699002081F83C00FFE745
:1024A00000208DF81F0003E002208DF81F00FFE7D9
:1024B0009DF81F0008B080BD80B588B0079000204F
:1024C00006900590049003900798006845F200413B
:1024D000C4F2000188423ED1FFE7FFE741F2180055
:1024E000C4F20200016841F008010160006800F0D8
:1024F000080002900298FFE74FF44070039012200A
:1025000004900320069040F60040C4F2010003A9A5
:10251000FFF75CF9FFE70421C4F2010108680190AC
:10252000019840F0E0600190019840F002000190B5
:1025300001980860FFE7FFE741F21C00C4F20200C7
:10254000016841F400110160006800F4001000907F
:102550000098FFE7FFE708B080BD000040F22800C8
:10256000C2F20000027840F2A821C2F2000108681D
:10257000104408607047000080B542F20001C4F2C8
:102580000201086840F010000860032000F096F88F
:102590000F2000F005F800F03BF8002080BD00009F
:1025A00080B582B0009040F20800C2F200000068DE
:1025B00040F22801C2F200010A784FF47A71B1FBAF
:1025C000F2F1B0FBF1F000F023FF20B1FFE70120B2
:1025D0008DF8070018E000980F280DD8FFE7009944
:1025E0004FF0FF30002200F04FF8009840F22C012D
:1025F000C2F20001086003E001208DF8070003E04B
:1026000000208DF80700FFE79DF8070002B080BDAD
:1026100083B0FFE741F21800C4F20200016841F004
:1026200001010160006800F0010002900298FFE7DC
:10263000FFE741F21C00C4F20200016841F0805142
:102640000160006800F0805001900198FFE7FFE70B
:102650000421C4F2010108680090009820F0E060B5
:102660000090009840F00070009000980860FFE72C
:1026700003B0704780B582B08DF807009DF9070060
:1026800003F0A8FD02B080BD80B586B08DF81700BC
:10269000049103920020029003F0B4FD02909DF992
:1026A0001700019002980499039A02F021FF014655
:1026B000019803F0AFFD06B080BD000080B582B088
:1026C0000190019803F0C8FD02B080BD80B588B0CC
:1026D00007900020069005900490039002900798C0
:1026E0000190012866D0FFE70198022800F0A5803C
:1026F000FFE70198102840F0B080FFE741F20400A6
:10270000C4F202000068039041F20000C4F202002B
:102710000068C00100284CD5FFE70398C0F383414F
:1027200047F63440C0F60000405C04909DF80E006F
:10273000C007F0B1FFE741F20400C4F202000068F4
:10274000C0F3404147F64440C0F60000405C0690AC
:102750009DF80E00C00758B1FFE7069941F200202E
:10276000C0F27A00B0FBF1F0049948430590FFE70E
:1027700007E0049840F60011C0F23D01484305907F
:10278000FFE741F20400C4F20200006840020028A2
:1027900003D5FFE7059802900AE0059840004AF645
:1027A000AB21CAF6AA21A0FB011040080290FFE766
:1027B000FFE753E041F22000C4F2020000680390FA
:1027C000039800F44070B0F5807F0AD1FFE79DF8D0
:1027D0000C008007002804D5FFE74FF4004002906A
:1027E0002AE0039800F44070B0F5007F0DD1FFE7B8
:1027F00041F22400C4F2020000688007002804D5DA
:10280000FFE749F64040029015E0039800F440705D
:10281000B0F5407F0DD1FFE741F20000C4F20200A5
:1028200000688003002804D5FFE74FF2244002909F
:1028300000E0FFE7FFE7FFE710E000F03BFA41F2BE
:102840000401C4F20201096801F44042022101EBD3
:102850005231B0FBF1F0029000E0FFE7029808B0BF
:1028600080BD000080B586B00490002003900290E7
:1028700004980078C007002800F0AC80FFE7002033
:102880008DF8070041F21C00C4F202000068C0008D
:10289000002813D4FFE7FFE741F21C00C4F2020056
:1028A000016841F080510160006800F080500090A4
:1028B0000098FFE701208DF80700FFE747F20000CE
:1028C000C4F200000068C005002822D4FFE747F2E8
:1028D0000001C4F20001086840F480700860FFF74E
:1028E00031F90390FFE747F20000C4F200000068EE
:1028F000C00500280CD4FFE7FFF724F90399401A1C
:10290000652804D3FFE703208DF817008AE0EAE783
:10291000FFE741F22000C4F20200006800F44070BA
:1029200002900298E0B3FFE702980499496801F425
:102930004071884234D0FFE741F22001C4F2020125
:10294000086820F44070029040F24042C4F24222F3
:102950000120106000201060029808609DF80800B7
:10296000C007E0B1FFE7FFF7EDF80390FFE741F2A2
:102970002000C4F202000068800700280ED4FFE7A0
:10298000FFF7E0F80399401A41F28931884204D3F5
:10299000FFE703208DF8170044E0E8E7FFE7FFE7D3
:1029A00041F22001C4F20201086820F44070049A48
:1029B0005268104308609DF80700012809D1FFE71D
:1029C00041F21C01C4F20201086820F08050086046
:1029D000FFE7FFE704980078800700280CD5FFE7A1
:1029E00041F20401C4F20201086820F44040049A54
:1029F000926810430860FFE704980078C00600283A
:102A00000CD5FFE741F20401C4F20201086820F48A
:102A10008000049AD26810430860FFE700208DF818
:102A20001700FFE79DF8170006B080BD80B584B0A1
:102A300002900191029820B9FFE701208DF80F0064
:102A40001BE1019842F20001C4F20201096801F0A1
:102A50000701884216D9FFE742F20000C4F20200E3
:102A6000016821F00701019A11430160006800F03C
:102A700007000199884204D0FFE701208DF80F007C
:102A8000FBE0FFE702980078800700282AD5FFE7DF
:102A9000029800784007002809D5FFE741F20401B9
:102AA000C4F20201086840F4E0600860FFE70298A1
:102AB00000780007002809D5FFE741F20401C4F2BD
:102AC0000201086840F460500860FFE741F2040129
:102AD000C4F20201086820F0F000029A92681043E4
:102AE0000860FFE702980078C007002860D0FFE781
:102AF0000298406801280ED1FFE741F20000C4F2BD
:102B0000020000688003002804D4FFE701208DF84C
:102B10000F00B2E021E00298406802280ED1FFE7E2
:102B200041F20000C4F2020000688001002804D4D1
:102B3000FFE701208DF80F009FE00DE041F200005B
:102B4000C4F2020000688007002804D4FFE70120D7
:102B50008DF80F0091E0FFE7FFE741F20401C4F2B6
:102B60000201086820F00300029A526810430860CE
:102B7000FEF7E8FF0090FFE741F20400C4F2020014
:102B8000006800F00C0002994968B0EB810F0ED08C
:102B9000FFE7FEF7D7FF0099401A41F289318842DA
:102BA00004D3FFE703208DF80F0066E0E4E7FFE7BA
:102BB000019842F20001C4F20201096801F0070124
:102BC000884216D2FFE742F20000C4F20200016818
:102BD00021F00701019A11430160006800F007002D
:102BE0000199884204D0FFE701208DF80F0044E0EE
:102BF000FFE702980078400700280CD5FFE741F274
:102C00000401C4F20201086820F4E060029AD2686C
:102C100010430860FFE702980078000700280DD5F0
:102C2000FFE741F20401C4F20201086820F4605099
:102C3000029A126940EAC2000860FFE700F04CF80F
:102C400041F20401C4F202010968C9B20A0947F657
:102C50001C41C0F60001895CC84040F20801C2F284
:102C60000001086040F22C00C2F200000068FFF78B
:102C700097FC00208DF80F00FFE79DF80F0004B0CF
:102C800080BD000040F20800C2F2000000687047FA
:102C900080B5FFF7F7FF41F20401C4F202010968B1
:102CA000C1F3022247F62C41C0F60001895CC840FE
:102CB00080BD000080B5FFF7E5FF41F20401C4F2DA
:102CC00002010968C1F3C22247F62C41C0F6000197
:102CD000895CC84080BD000086B00020059004904B
:102CE00003900290019041F20400C4F202000068D7
:102CF0000590059800F00C000146009100283FD097
:102D0000FFE70098042804D0FFE70098082806D0C1
:102D100037E041F20020C0F27A00019037E00598D8
:102D2000C0F3834147F64640C0F60000405C029085
:102D30009DF81600C007C0B1FFE741F20400C4F2DD
:102D400002000068C0F3404147F65640C0F600005C
:102D5000405C0490029841F20021C0F27A0148439D
:102D60000499B0FBF1F0039007E0029840F60011DF
:102D7000C0F23D0148430390FFE70398019006E04D
:102D8000FFE741F20020C0F27A000190FFE70198CE
:102D900006B0704780B586B00490049820B9FFE76C
:102DA00001208DF817002EE304980078C007002852
:102DB00000F0AE80FFE741F20400C4F202000068B8
:102DC00000F00C00042813D0FFE741F20400C4F225
:102DD0000200006800F00C0008281BD1FFE741F258
:102DE0000400C4F202000068C003002812D5FFE707
:102DF00041F20000C4F2020000688003002808D5F8
:102E0000FFE70498406820B9FFE701208DF817001C
:102E1000F9E27CE0FFE704984068B0F5803F09D113
:102E2000FFE741F20001C4F20201086840F480307B
:102E3000086032E00498406868B9FFE741F2000199
:102E4000C4F20201086820F480300860086820F4A9
:102E50008020086020E004984068B0F5A02F0DD1D4
:102E6000FFE741F20001C4F20201086840F480204B
:102E70000860086840F4803008600CE041F200010E
:102E8000C4F20201086820F480300860086820F469
:102E900080200860FFE7FFE7FFE7FFE7049840684E
:102EA000D0B1FFE7FEF74EFE0390FFE741F20000CE
:102EB000C4F202000068800300280CD4FFE7FEF78C
:102EC00041FE0399401A652804D3FFE703208DF8DB
:102ED000170098E2EAE719E0FEF734FE0390FFE7F7
:102EE00041F20000C4F202000068800300280CD503
:102EF000FFE7FEF727FE0399401A652804D3FFE792
:102F000003208DF817007EE2EAE7FFE7FFE7FFE71F
:102F1000049800788007002840F18D80FFE741F297
:102F20000400C4F20200006810F00C0F13D0FFE799
:102F300041F20400C4F20200006800F00C0008280E
:102F400029D1FFE741F20400C4F202000068C00387
:102F5000002820D4FFE741F20000C4F2020000681C
:102F60008007002809D5FFE704980069012804D0EC
:102F7000FFE701208DF8170045E241F20001C4F29D
:102F80000201086820F0F800049A526940EAC20081
:102F90000860FFE74EE00498006958B3FFE700219E
:102FA000C4F2422101200860FEF7CCFD0390FFE748
:102FB00041F20000C4F202000068800700280CD42F
:102FC000FFE7FEF7BFFD0399401A032804D3FFE78C
:102FD00003208DF8170016E2EAE741F20001C4F27F
:102FE0000201086820F0F800049A526940EAC20021
:102FF00008601EE00021C4F2422100200860FEF7B4
:10300000A1FD0390FFE741F20000C4F20200006856
:10301000800700280CD5FFE7FEF794FD0399401ABE
:10302000032804D3FFE703208DF81700EBE1EAE75C
:10303000FFE7FFE7FFE7049800780007002848D57E
:10304000FFE70498806918B3FFE740F28041C4F2BB
:10305000422101200860FEF775FD0390FFE741F271
:103060002400C4F202000068800700280CD4FFE7A7
:10307000FEF768FD0399401A032804D3FFE70320F5
:103080008DF81700BFE1EAE7012002F03BFB1FE0EB
:1030900040F28041C4F2422100200860FEF752FD58
:1030A0000390FFE741F22400C4F2020000688007A9
:1030B00000280CD5FFE7FEF745FD0399401A0328C9
:1030C00004D3FFE703208DF817009CE1EAE7FFE750
:1030D000FFE7049800784007002840F1D880FFE718
:1030E00000208DF8070041F21C00C4F202000068C5
:1030F000C000002813D4FFE7FFE741F21C00C4F230
:103100000200016841F080510160006800F08050C9
:1031100000900098FFE701208DF80700FFE747F2D5
:103120000000C4F200000068C005002822D4FFE7B8
:1031300047F20001C4F20001086840F480700860A2
:10314000FEF700FD0390FFE747F20000C4F2000025
:103150000068C00500280CD4FFE7FEF7F3FC0399D4
:10316000401A652804D3FFE703208DF817004AE1D1
:10317000EAE7FFE7FFE70498C068012809D1FFE705
:1031800041F22001C4F20201086840F00100086029
:1031900031E00498C06868B9FFE741F22001C4F249
:1031A0000201086820F001000860086820F00400AF
:1031B00008601FE00498C06805280DD1FFE741F2C0
:1031C0002001C4F20201086840F0040008600868A9
:1031D00040F0010008600CE041F22001C4F202015D
:1031E000086820F001000860086820F0040008600A
:1031F000FFE7FFE7FFE7FFE70498C068E0B1FFE7FC
:10320000FEF7A0FC0390FFE741F22000C4F20200A9
:103210000068800700280ED4FFE7FEF793FC0399AF
:10322000401A41F28931884204D3FFE703208DF828
:103230001700E8E0E8E71BE0FEF784FC0390FFE7F7
:1032400041F22000C4F202000068800700280ED579
:10325000FFE7FEF777FC0399401A41F28931884273
:1032600004D3FFE703208DF81700CCE0E8E7FFE781
:103270009DF80700012809D1FFE741F21C01C4F2C3
:103280000201086820F080500860FFE7FFE704981B
:10329000C069002800F0B380FFE741F20400C4F2E7
:1032A0000200006800F00C00082800F08280FFE7B0
:1032B0000498C06902285CD1FFE76021C4F2422172
:1032C00000200860FEF73EFC0390FFE741F200009B
:1032D000C4F202000068800100280CD5FFE7FEF769
:1032E00031FC0399401A032804D3FFE703208DF82B
:1032F000170088E0EAE70498006AB0F5803F0CD137
:10330000FFE741F20401C4F20201086820F4003032
:10331000049A926810430860FFE741F20401C4F286
:103320000201086820F47410049B1A6A5B6A1A434D
:10333000104308606021C4F2422101200860FEF7BA
:1033400001FC0390FFE741F20000C4F202000068B4
:10335000800100280CD4FFE7FEF7F4FB0399401A24
:10336000032804D3FFE703208DF817004BE0EAE7BA
:103370001EE06021C4F2422100200860FEF7E2FB5B
:103380000390FFE741F20000C4F2020000688001F0
:1033900000280CD5FFE7FEF7D5FB0399401A032858
:1033A00004D3FFE703208DF817002CE0EAE7FFE7DE
:1033B00024E00498C069012804D1FFE701208DF8BA
:1033C000170020E041F20400C4F2020000680290FD
:1033D000029800F480300499096A884208D1FFE716
:1033E000029800F470100499496A884204D0FFE7FB
:1033F00001208DF8170006E0FFE7FFE7FFE7002058
:103400008DF81700FFE79DF8170006B080BD00009B
:1034100080B582B00190019802F094F902B080BDAD
:1034200081B0009001B0704781B0009001B070474A
:1034300084B00290019100200090FFE7029890F87C
:103440003C00012804D1FFE702208DF80F0044E082
:103450000299012081F83C00FFE7FFE7009820F087
:10346000FF000199C96808430090009820F440705B
:103470000199896808430090009820F480600199C0
:10348000496808430090009820F400600199096899
:1034900008430090009820F480500199096908437E
:1034A0000090009820F40050019949690843009069
:1034B000009820F480400199C96908430090009861
:1034C000029909684864FFE70299002081F83C00EE
:1034D000FFE700208DF80F00FFE79DF80F0004B014
:1034E0007047000085B003900291FFE7039890F8C1
:1034F0003C00012804D1FFE702208DF813005BE0B7
:103500000399012081F83C00FFE7FFE703990220BF
:1035100081F83D00039800684068019003980068B6
:1035200080680090019820F0700001900298016876
:10353000019808430190019803990968486003982D
:10354000006842F60041C4F20101884218D0FFE74A
:1035500003980068B0F1804F12D0FFE7039800682D
:1035600040F20041C4F20001884209D0FFE703980D
:10357000006840F60001C4F2000188420ED1FFE766
:10358000009820F08000009002984168009808435D
:1035900000900098039909688860FFE7039901206B
:1035A00081F83D00FFE70399002081F83C00FFE728
:1035B00000208DF81300FFE79DF8130005B0704759
:1035C00080B58AB008900791079828B9FFE7089856
:1035D00090F8420005901CE00798042805D1FFE709
:1035E000089890F84300049010E00798082805D147
:1035F000FFE7089890F84400039004E0089890F8DA
:1036000045000390FFE703980490FFE704980590B6
:10361000FFE70598012804D0FFE701208DF8270077
:1036200070E0079828B9FFE70899022081F8420066
:103630001EE00798042806D1FFE70899022081F8C8
:103640004300029012E00798082806D1FFE7089986
:10365000022081F84400019005E00899022081F8D9
:1036600045000190FFE701980290FFE70298FFE70D
:10367000089800680799042202F078F90898016810
:10368000486C40F4004048640898006842F60041E5
:10369000C4F20101884218D0FFE708980068B0F131
:1036A000804F12D0FFE70898006840F20041C4F252
:1036B0000001884209D0FFE70898006840F6000141
:1036C000C4F20001884212D1FFE7089800688068C0
:1036D00000F0070006900698062807D0FFE7089834
:1036E0000168086840F001000860FFE706E00898FC
:1036F0000168086840F001000860FFE700208DF8CD
:103700002700FFE79DF827000AB080BD80B582B092
:103710000090009820B9FFE701208DF807003FE0F6
:10372000009890F83D0040B9FFE70099002081F82B
:103730003C00009800F038F8FFE70099022081F87B
:103740003D00009951F8040B02F07CF8009901202B
:1037500081F84600FFE70099012081F83E000099BA
:1037600081F83F00009981F84000009981F84100FC
:10377000FFE7FFE70099012081F84200009981F8F6
:103780004300009981F84400009981F84500FFE763
:103790000099012081F83D0000208DF80700FFE727
:1037A0009DF8070002B080BD80B584B003900398F7
:1037B000006842F60041C4F20101884210D1FFE7DF
:1037C000FFE741F21800C4F20200016841F4006111
:1037D0000160006800F4006002900298FFE722E0B8
:1037E0000398006840F20041C4F20001884219D1F8
:1037F000FFE7FFE741F21C00C4F20200016841F05C
:1038000002010160006800F0020001900198FFE7EA
:103810001D20009001210022FEF736FF0098FEF7E0
:1038200029FFFFE7FFE704B080BD000080B586B048
:103830000490039100208DF80B00FFE7049890F8A6
:103840003C00012804D1FFE702208DF81700ABE00F
:103850000499012081F83C00FFE7FFE7049902206A
:1038600081F83D000498006880680190019820F07C
:1038700077000190019820F47F400190019804990D
:1038800009688860039800680090002872D0FFE7FC
:10389000009810286ED0FFE7009820286AD0FFE734
:1038A0000098302866D0FFE70098402855D0FFE701
:1038B0000098502837D0FFE70098602840D0FFE7F5
:1038C000009870280BD0FFE70098B0F5805F05D016
:1038D000FFE70098B0F5005F16D052E055E004987D
:1038E0000068039B5A689968DB6802F05BF80498EB
:1038F000006880680190019840F07700019001987D
:1039000004990968886040E004980068039B5A683D
:103910009968DB6802F046F804980168886840F40A
:103920008040886031E004980068039A5168D2684A
:1039300002F0F4F904980068502102F04DF824E0F8
:1039400004980068039A5168D26802F073FA0498E8
:103950000068602102F040F817E004980068039ABC
:103960005168D26802F0DAF904980068402102F048
:1039700033F80AE0049800680399096802F02CF80B
:1039800003E001208DF80B00FFE70499012081F886
:103990003D00FFE70499002081F83C00FFE79DF817
:1039A0000B008DF81700FFE79DF8170006B080BDEB
:1039B00080B586B004900391049820B9FFE70120F8
:1039C0008DF8170084E0049890F83D0040B9FFE7B7
:1039D0000499002081F83C00049800F07DF8FFE78E
:1039E0000499022081F83D0004980168886844F237
:1039F000070290438860049951F8040B01F022FFFC
:103A000004980068806802900498006880690190BA
:103A100004980068006A00900398016802980843BF
:103A20000290019840F2033188430190039988681D
:103A3000896940EA0121019808430190019840F604
:103A40000C418843019001984FF2F00188430190A6
:103A50000399C868C96940EA0121019808430190A7
:103A600003990869096A000140EA01310198084395
:103A70000190009820F0220000900399486849695D
:103A800040EA0111009808430090029804990968DF
:103A90008860019804990968886100980499096808
:103AA00008620499012081F84600049981F83E00DB
:103AB000049981F83F00049981F84200049981F843
:103AC0004300049981F83D0000208DF81700FFE7BE
:103AD0009DF8170006B080BD81B0009001B070471E
:103AE00081B0009001B0704780B586B0049003911A
:103AF000029200208DF80700FFE7049890F83C0040
:103B0000012804D1FFE702208DF8170080E0049916
:103B1000012081F83C00FFE7FFE70298B0B9FFE71A
:103B200004980068039B19685A68DB6802F01EF964
:103B300004980168886920F00C0088610398826805
:103B40000498016888691043886156E00298042847
:103B500017D1FFE704980068039B19685A68DB686F
:103B600002F092F904980168886920F44060886145
:103B70000398826804980168886940EA0220886195
:103B80003AE00298082816D1FFE704980068039BE2
:103B900019685A68DB6802F0ADF904980168C869D1
:103BA00020F00C00C8610398826804980168C86915
:103BB0001043C8611FE002980C2817D1FFE7049852
:103BC0000068039B19685A68DB6802F0C9F9049819
:103BD0000168C86920F44060C8610398826804984D
:103BE0000168C86940EA0220C86103E001208DF83D
:103BF0000700FFE7FFE7FFE7FFE7FFE70499002083
:103C000081F83C00FFE79DF807008DF81700FFE7FB
:103C10009DF8170006B080BD80B582B00090009876
:103C200020B9FFE701208DF807003FE0009890F8E9
:103C30003D0040B9FFE70099002081F83C00009862
:103C400000F038F8FFE70099022081F83D00009964
:103C500051F8040B01F0F6FD0099012081F84600AF
:103C6000FFE70099012081F83E00009981F83F00AC
:103C7000009981F84000009981F84100FFE7FFE7D3
:103C80000099012081F84200009981F843000099D1
:103C900081F84400009981F84500FFE70099012070
:103CA00081F83D0000208DF80700FFE79DF8070030
:103CB00002B080BD80B588B00790002006900590C6
:103CC0000490039007980068B0F1804F2BD1FFE774
:103CD000FFE741F21C00C4F20200016841F001015B
:103CE0000160006800F0010002900298FFE7FFE722
:103CF00041F21800C4F20200016841F004010160C1
:103D0000006800F0040001900198FFE7072003908D
:103D100000200490059040F60000C4F2010003A9C1
:103D2000FDF754FDFFE708B080BD000080B582B00C
:103D3000019001980068006900F002010020B0EBDA
:103D4000510F28D0FFE701980068C06800F0020119
:103D50000020B0EB510F1DD0FFE7019801686FF014
:103D600002000861019901200877019800688069C4
:103D7000800720B1FFE70198FFF7B2FE06E0019847
:103D800000F060F9019800F055FAFFE70199002072
:103D90000877FFE7FFE701980068006900F0040179
:103DA0000020B0EB910F29D0FFE701980068C068B0
:103DB00000F004010020B0EB910F1ED0FFE7019846
:103DC00001686FF0040008610199022008770198EA
:103DD0000068806910F4407F04D0FFE70198FFF786
:103DE0007FFE06E0019800F02DF9019800F022FA1C
:103DF000FFE7019900200877FFE7FFE701980068D7
:103E0000006900F008010020B0EBD10F28D0FFE7D7
:103E100001980068C06800F008010020B0EBD10FE5
:103E20001DD0FFE7019801686FF008000861019953
:103E30000420087701980068C069800720B1FFE777
:103E40000198FFF74DFE06E0019800F0FBF801989D
:103E500000F0F0F9FFE7019900200877FFE7FFE79E
:103E600001980068006900F010010020B0EB111FFC
:103E700029D0FFE701980068C06800F01001002019
:103E8000B0EB111F1ED0FFE7019801686FF0100022
:103E9000086101990820087701980068C06910F44A
:103EA000407F04D0FFE70198FFF71AFE06E0019873
:103EB00000F0C8F8019800F0BDF9FFE70199002073
:103EC0000877FFE7FFE7019800680069C00780B145
:103ED000FFE701980068C068C00748B1FFE7019894
:103EE00001686FF001000861019800F057FAFFE7E0
:103EF000FFE7019800680069C1B20020B0EBD11F54
:103F000013D0FFE701980068C068C1B20020B0EB91
:103F1000D11F09D0FFE7019801686FF080000861A8
:103F20000198FFF77DFAFFE7FFE701980068006955
:103F300000F040010020B0EB911F14D0FFE7019882
:103F40000068C06800F040010020B0EB911F09D06C
:103F5000FFE7019801686FF040000861019800F0E8
:103F600033FAFFE7FFE701980068006900F02001DD
:103F70000020B0EB511F14D0FFE701980068C06823
:103F800000F020010020B0EB511F09D0FFE701989D
:103F900001686FF0200008610198FFF745FAFFE71C
:103FA000FFE702B080BD000080B58AB00990002014
:103FB00008900790069005900998006842F6004125
:103FC000C4F2010188423BD1FFE7FFE741F218004C
:103FD000C4F20200016841F008010160006800F0CD
:103FE000080004900498FFE7FFE741F21800C4F2CC
:103FF0000200016841F004010160006800F0040063
:1040000003900398FFE74FF4604005900220019071
:104010000690089040F60040C4F2010005A9029104
:10402000FDF7D4FB019802994FF4E06205920690E7
:10403000089040F60000C4F20100FDF7C7FBFFE75F
:104040000AB080BD81B0009001B0704780B586B0E5
:1040500004900391029200208DF80700FFE7049876
:1040600090F83C00012804D1FFE702208DF81700EA
:1040700089E00499012081F83C00FFE7FFE70298FE
:1040800000900C2800F270800099DFE801F0076DC5
:104090006D6D206D6D6D3A6D6D6D53000498006807
:1040A000039901F0AFFC04980168886940F00800AA
:1040B000886104980168886920F004008861039889
:1040C00002690498016888691043886150E0049887
:1040D0000068039901F0FEFC04980168886940F4C7
:1040E0000060886104980168886920F480608861B4
:1040F0000398026904980168886940EA022088618F
:1041000036E004980068039901F050FD04980168B6
:10411000C86940F00800C86104980168C86920F0C7
:104120000400C8610398026904980168C8691043D3
:10413000C8611DE004980068039901F0A3FD04988C
:104140000168C86940F40060C86104980168C869E2
:1041500020F48060C8610398026904980168C86906
:1041600040EA0220C86103E001208DF80700FFE764
:10417000FFE70499002081F83C00FFE79DF8070065
:104180008DF81700FFE79DF8170006B080BD00000E
:1041900080B582B00090009820B9FFE701208DF82B
:1041A00007003FE0009890F83D0040B9FFE7009914
:1041B000002081F83C00009800F038F8FFE70099F3
:1041C000022081F83D00009951F8040B01F03AFB00
:1041D0000099012081F84600FFE70099012081F84D
:1041E0003E00009981F83F00009981F84000009955
:1041F00081F84100FFE7FFE70099012081F84200C4
:10420000009981F84300009981F84400009981F8F1
:104210004500FFE70099012081F83D0000208DF85E
:104220000700FFE79DF8070002B080BD81B0009055
:1042300001B0704781B0009001B0704780B58AB07E
:1042400008900791079828B9FFE7089890F83E0072
:1042500005901CE00798042805D1FFE7089890F81E
:104260003F00049010E00798082805D1FFE7089860
:1042700090F84000039004E0089890F84100039003
:10428000FFE703980490FFE704980590FFE705987F
:10429000012804D0FFE701208DF827007AE0079875
:1042A00028B9FFE70899022081F83E001EE0079830
:1042B000042806D1FFE70899022081F83F00029008
:1042C00012E00798082806D1FFE70899022081F834
:1042D0004000019005E00899022081F8410001901A
:1042E000FFE701980290FFE70298FFE7089800684F
:1042F0000799012201F01EFB0898006842F6004170
:10430000C4F20101884207D1FFE708980168486CB0
:1043100040F400404864FFE70898006842F6004116
:10432000C4F20101884218D0FFE708980068B0F194
:10433000804F12D0FFE70898006840F20041C4F2B5
:104340000001884209D0FFE70898006840F60001A4
:10435000C4F20001884212D1FFE708980068806823
:1043600000F0070006900698062807D0FFE7089897
:104370000168086840F001000860FFE706E008985F
:104380000168086840F001000860FFE700208DF830
:104390002700FFE79DF827000AB080BD81B000909C
:1043A000009840F2FC11C2F20001884201D1FFE7FF
:1043B000FFE7009840F24421C2F20001884201D197
:1043C000FFE7FFE701B0704781B0009001B0704790
:1043D000FFE7FEE782B0009000980068406900F4B3
:1043E00080610120B0EB912F1ED1FFE7009801689A
:1043F0006FF480604861009900200863009A2021D2
:1044000082F83D10009981F83E000099086C40F058
:1044100004000864FFE70099002081F83C00FFE7F2
:1044200001208DF8070003E000208DF80700FFE76A
:104430009DF8070002B0704780B588B00690ADF8CF
:104440001610049203930698C06A029006980168B9
:10445000086840F4806008600298082809D0FFE7E7
:104460000298012805D0FFE7029810F5803F07D198
:10447000FFE706980168086840F4807008600DE066
:104480000698006B112807D1FFE7069801680868B5
:1044900040F48070086000E0FFE7FFE70698049BA7
:1044A00003996A4611604FF00111002200F07AF979
:1044B00080B1FFE7069800680068C005002805D5B0
:1044C000FFE706994FF400700864FFE703208DF8BA
:1044D0001F0082E006980069B0F5804F08D1FFE721
:1044E0009DF8160040F0010006990968086162E035
:1044F000BDF8160000F44070C009F0300699096854
:1045000008610698049A039B0821C0F2010100F09B
:10451000CDF920B1FFE701208DF81F005DE09DF887
:1045200016000699096808610698049A039B0221FF
:10453000C0F2010100F0BAF920B1FFE701208DF8C7
:104540001F004AE0FFE700200190069800684069DC
:10455000019006980068806901900198FFE706982D
:104560000168086840F4807008600698049B03990D
:104570006A4611604FF00111002200F013F980B17A
:10458000FFE7069800680068C005002805D5FFE72A
:1045900006994FF400700864FFE703208DF81F00B0
:1045A0001BE0BDF8160000F44070C009F130069918
:1045B00009680861FFE70698049A039B0221C0F28C
:1045C000010100F073F920B1FFE701208DF81F0011
:1045D00003E000208DF81F00FFE79DF81F0008B0E2
:1045E00080BD000080B588B00690ADF8161004922A
:1045F00003930698C06A02900298082809D0FFE742
:104600000298012805D0FFE7029810F5803F07D1F6
:10461000FFE706980168086840F4807008600DE0C4
:104620000698006B122807D1FFE706980168086812
:1046300040F48070086000E0FFE7FFE70698049B05
:1046400003996A4611604FF00111002200F0AAF8A8
:1046500080B1FFE7069800680068C005002805D50E
:10466000FFE706994FF400700864FFE703208DF818
:104670001F003CE006980069B0F5804F08D1FFE7C5
:10468000BDF8160000F0FE000699096808611CE0FC
:10469000BDF8160000F44070C009F03006990968B2
:1046A00008610698049A039B0821C0F2010100F0FA
:1046B000FDF820B1FFE701208DF81F0017E09DF8FD
:1046C0001600069909680861FFE70698049A039B9B
:1046D0000221C0F2010100F0E9F820B1FFE701205A
:1046E0008DF81F0003E000208DF81F00FFE79DF804
:1046F0001F0008B080BD000080B584B00290019119
:104700000092FFE702980068406900F00401002071
:10471000B0EB910F3ED1FFE70298FFF75BFE20B1AF
:10472000FFE701208DF80F0038E00198013080B3D9
:10473000FFE7FDF707FA0099401A0199884203D86C
:10474000FFE7019820BBFFE702980068406900F08E
:1047500004010020B0EB910F19D1FFE7029900206E
:104760000863029A202182F83D10029981F83E00E8
:104770000299086C40F020000864FFE702990020CD
:1047800081F83C00FFE701208DF80F0006E0FFE70D
:10479000FFE7B7E700208DF80F00FFE79DF80F0057
:1047A00004B080BD80B588B0DDF828C006900591C2
:1047B0008DF813200393FFE79DF8160001280CD114
:1047C000FFE7069800684069BDF814100840401AD9
:1047D000B0FA80F0400902900BE00698006880690A
:1047E000BDF814100840401AB0FA80F04009029059
:1047F000FFE702989DF8131088424FD1FFE7039816
:104800000130002849D0FFE7FDF79CF90A99401ACA
:104810000399884203D8FFE70398E8BBFFE79DF8B8
:10482000160001280CD1FFE7069800684069BDF822
:1048300014100840401AB0FA80F0400901900BE0D3
:10484000069800688069BDF814100840401AB0FA54
:1048500080F040090190FFE701989DF8131088420D
:1048600019D1FFE7069900200863069A202182F8F3
:104870003D10069981F83E000699086C40F0200032
:104880000864FFE70699002081F83C00FFE701205B
:104890008DF81F0006E0FFE7FFE78DE700208DF8A9
:1048A0001F00FFE79DF81F0008B080BD80B588B0ED
:1048B0000690059104920393FFE79DF816000128E6
:1048C0000CD1FFE7069800684069BDF81410084055
:1048D000401AB0FA80F0400902900BE00698006898
:1048E0008069BDF814100840401AB0FA80F0400901
:1048F0000290FFE7029800287AD1FFE70698006847
:10490000406900F480610120B0EB912F24D1FFE7D2
:1049100006980168086840F400700860069801680D
:104920006FF480604861069900200863069A202190
:1049300082F83D10069981F83E000699086C40F017
:1049400004000864FFE70699002081F83C00FFE7B7
:1049500001208DF81F004FE004980130002846D058
:10496000FFE7FDF7EFF80399401A0499884203D84E
:10497000FFE70498D0BBFFE79DF8160001280CD193
:10498000FFE7069800684069BDF814100840401A17
:10499000B0FA80F0400901900BE006980068806949
:1049A000BDF814100840401AB0FA80F04009019098
:1049B000FFE70198C8B9FFE7069900200863069A47
:1049C000202182F83D10069981F83E000699086C76
:1049D00040F020000864FFE70699002081F83C00C1
:1049E000FFE701208DF81F0006E0FFE7FFE764E71F
:1049F00000208DF81F00FFE79DF81F0008B080BD64
:104A000080B584B0029001910092FFE7029800689F
:104A1000406900F040010020B0EB911F56D1FFE744
:104A200002980068406900F010010120B0EB111FEE
:104A30001CD1FFE7029801686FF0100048610299ED
:104A400000200863029A202182F83D10029981F823
:104A50003E000299086C0864FFE70299002081F883
:104A60003C00FFE701208DF80F0033E0FDF76AF806
:104A70000099401A0199884203D8FFE7019820BBAA
:104A8000FFE702980068406900F040010020B0EBA9
:104A9000911F19D1FFE7029900200863029A202193
:104AA00082F83D10029981F83E000299086C40F0AE
:104AB00020000864FFE70299002081F83C00FFE72E
:104AC00001208DF80F0005E0FFE79FE700208DF83B
:104AD0000F00FFE79DF80F0004B080BD80B584B0E3
:104AE000029001910092FFE7029800684069C1B20C
:104AF0000020B0EBD11F3DD1FFE70298FFF76AFC21
:104B000020B1FFE701208DF80F0037E00198013058
:104B100078B3FFE7FDF716F80099401A019988422B
:104B200003D8FFE7019818BBFFE7029800684069C7
:104B3000C1B20020B0EBD11F19D1FFE702990020CC
:104B40000863029A202182F83D10029981F83E0004
:104B50000299086C40F020000864FFE702990020E9
:104B600081F83C00FFE701208DF80F0006E0FFE729
:104B7000FFE7B9E700208DF80F00FFE79DF80F0071
:104B800004B080BD82B00190019A41F21800C4F2D5
:104B9000020001681143016000680199084000901B
:104BA000009802B0704700000421C4F201010868B7
:104BB0000122C0F2007210430860704780B586B0D1
:104BC000059004910498B0F801000390039890FABE
:104BD000A0F0B0FA80F00290FFE703980299C84075
:104BE000002849D0FFE703980299C840C007002871
:104BF0003ED0FFE70298072806D8FFE7029940F267
:104C000001108840019009E00298A0F108014FF0DE
:104C10000110884040F080600190FFE704984068F0
:104C2000082807D1FFE705980199049A126900F056
:104C30005BF8FFE705980199049A526800F020F8A4
:104C400004984068012805D0FFE7049840680928C7
:104C50000DD1FFE705980199049A926800F05AF87F
:104C600005980199049AD26800F024F8FFE7FFE75D
:104C7000029801300290B0E7002006B080BD00002D
:104C800084B003900291019203989DF80B100844A0
:104C9000009000990868029A92FAA2F2B2FA82F29F
:104CA00093000F229A409043019A9A401043086063
:104CB00004B0704784B003900291019203989DF86C
:104CC0000B100844009000990868029A92FAA2F228
:104CD000B2FA82F2930004229A409043019A9A40D9
:104CE0001043086004B0704783B0029001910092B5
:104CF0000298C06801990A0A20EA1120009992FAE4
:104D0000A2F2B2FA82F2914008430299C86003B05D
:104D10007047000084B003900291019203989DF8BF
:104D20000B100844009000990868029A92FAA2F2C7
:104D3000B2FA82F2930003229A409043019A9A4079
:104D40001043086004B0704781B000900099086873
:104D500040F04000086001B07047000080B584B0AA
:104D60000390029101208DF80700039800F056F897
:104D7000C0BBFFE7039800684FF6BF718843029AF3
:104D800000921168D2F804E0D2F808C0D36841EA72
:104D90000E0141EA0C011943136919435369194380
:104DA00093691943D3691943126A1143084303995C
:104DB00008600398406820F004000299C98A0843FB
:104DC000039948600298006AB0F5005F06D1FFE7DA
:104DD00003980299496A00F031F8FFE700208DF846
:104DE0000700FFE79DF8070004B080BD81B0009088
:104DF00000988068C0B2C00901B0704781B00090CF
:104E00000098806800F0010001B0704781B0009008
:104E100000988068C0F3400001B0704781B00090F6
:104E200000980068C0F3801001B0704781B0009016
:104E30000098C06880B201B07047000082B0019055
:104E40000091BDF800000199086102B070470000B0
:104E500083B00290ADF8061002980C300090BDF8B7
:104E600006000099088003B07047000080B584B048
:104E70000390029103998868C96801F029FE0090A7
:104E800003988068C0F50040029901F021FE0146B8
:104E900000980844019001980399C860019804B0F3
:104EA00080BD000080B582B00190ADF80210BDF861
:104EB00002000199088001990020C86001980288C9
:104EC000D0034FF4481101EBC23101F0B9FD019953
:104ED000886002B080BD000080B58AB000220192D7
:104EE000099208920792069205920492039240F268
:104EF0000810C2F20000029042F20041C4F2010127
:104F000001604FF4807181600121017302754FF4DB
:104F10006023C36142600161FCF778F818B1FFE7D4
:104F2000FBF7A6FBFFE70320039001210491079004
:104F3000022005904FF48050099000208DF8210048
:104F40008DF82000069040F20810C2F2000003A97C
:104F5000FBF764FC18B1FFE7FBF78AFBFFE70420CF
:104F600003900220049040F20810C2F2000003A94E
:104F7000FBF754FC18B1FFE7FBF77AFBFFE70520CE
:104F800003900320049040F20810C2F2000003A92D
:104F9000FBF744FC18B1FFE7FBF76AFBFFE70AB039
:104FA00080BD000080B58CB040F23810C2F2000025
:104FB000019046F20041C4F2000101600421416009
:104FC00000218160C1604FF4A02202614FF4801281
:104FD00042610176417601228276C176017741777E
:104FE000FCF750FA18B1FFE7FBF742FBFFE700219F
:104FF0000791089101200990029103910491059174
:1050000006910A900E200B9040F23810C2F2000078
:1050100002A9FCF779F918B1FFE7FBF729FBFFE7D5
:1050200040F23810C2F200000090FCF767FB0098D5
:1050300048F67F71C0F20301FCF73CF940F2A80189
:10504000C2F200010120086000204860C86088604A
:1050500008220A6108750CB080BD000080B58EB0D2
:1050600000200D900C900B900A90FFE741F2180081
:10507000C4F20200016841F020010160006800F004
:10508000200009900998FFE7FFE741F21800C4F2F9
:105090000200016841F004010160006800F00400B2
:1050A00008900898FFE7FFE741F21800C4F20200F9
:1050B000016841F008010160006800F008000790F5
:1050C0000798FFE740F60040C4F2010000908521F8
:1050D00000220292FCF71EFD029A40F60000C4F284
:1050E000010004904FF400410691FCF713FD009875
:1050F000402101220192FCF70DFD0098019A0299CE
:10510000C5230A930B920C91022103910D910AA9D8
:105110000591FCF75BFB0098029A039B05990A93A3
:105120000B920C92FCF752FBDDF804C0029B039A31
:1051300004980599DDF818E0CDF828E0CDF82CC0EA
:105140000C930D92FCF742FB0EB080BD80B582B08F
:1051500040F26010C2F20000019045F20041C4F23A
:105160000001016041F68021C0F20601416000218A
:105170008160C1604FF48042026141618161C1611F
:105180000162FCF7E5FC18B1FFE7FBF771FAFFE7F6
:1051900002B080BD80B594B00AA804902821FAF727
:1051A000C8FF002003900990089007900690059092
:1051B0004FF48050FFF7E6FC08200290FFF7E2FC76
:1051C000039842F6280105910921069103210791D0
:1051D000089040F60040C4F20100019005A900913A
:1051E000FFF7ECFC0099019841F2100205920422AD
:1051F0000692FFF7E3FCFFF7D7FC029A03980499A5
:105200000A904FF482730B934FF400630C930D904C
:105210000E904FF400730F931092119012900A2089
:10522000139043F20000C4F20100FFF797FD14B0A1
:1052300080BD000080B598B00021019117911691B2
:105240001591149113911291119110910F910E914A
:105250000D910C910B910A9109910891079106917A
:1052600005910491039140F2B410C2F20000029043
:1052700042F60042C4F201020260416020228260D4
:105280004FF46162C260016141618161FEF73EFAE3
:1052900018B1FFE7FBF7ECF9FFE74FF480501490EB
:1052A00040F2B410C2F2000014A9FEF7BFFA18B120
:1052B000FFE7FBF7DDF9FFE740F2B410C2F20000B0
:1052C000FEF766FF18B1FFE7FBF7D2F9FFE7002012
:1052D0001290139040F2B410C2F2000012A9FEF72F
:1052E00001F918B1FFE7FBF7C3F9FFE760200B9066
:1052F00000220C920D920E920F921092119240F297
:10530000B410C2F200000BA9FEF7A0FE18B1FFE72F
:10531000FBF7AEF9FFE740F2B410C2F200000BA9B0
:105320000422FEF793FE18B1FFE7FBF7A1F9FFE7B0
:1053300040F2B410C2F200000BA90822FEF786FE6C
:1053400018B1FFE7FBF794F9FFE740F2B410C2F29F
:1053500000000BA90C22FEF779FE18B1FFE7FBF75E
:1053600087F9FFE700200390049005900121069142
:1053700007904FF4005108910A9040F2B410C2F225
:10538000000003A9FEF754F818B1FFE7FBF770F926
:10539000FFE740F2B410C2F20000FEF705FE18B0BD
:1053A00080BD000080B590B007A82421FAF7C1FEA7
:1053B00000210091069105910491039102910191C0
:1053C00040F2FC10C2F200004FF0804202604160E7
:1053D00081604FF6FF72C26001618161FEF71CFCC3
:1053E00018B1FFE7FBF744F9FFE70320079000201F
:1053F0000890012109910A900B900C900D910E904C
:105400000F9040F2FC10C2F2000007A9FEF7D0FA9C
:1054100018B1FFE7FBF72CF9FFE700200590069095
:1054200040F2FC10C2F2000005A9FEF75BF818B1CB
:10543000FFE7FBF71DF9FFE7002001900121029132
:105440000390049040F2FC10C2F2000001A908226F
:10545000FEF74AFB18B1FFE7FBF70AF9FFE710B0C8
:1054600080BD000080B588B00021019107910691B0
:10547000059104910391029140F24420C2F2000090
:1054800040F20042C4F200020260472242608160A2
:105490006322C26001618161FEF738F918B1FFE74C
:1054A000FBF7E6F8FFE74FF48050049040F2442009
:1054B000C2F2000004A9FEF7B9F918B1FFE7FBF743
:1054C000D7F8FFE700200290039040F24420C2F298
:1054D000000002A9FEF706F818B1FFE7FBF7C8F8CD
:1054E000FFE708B080BD0000FFE7FEE7FFE7FEE74B
:1054F00088B0079006910592079800F00700049085
:105500000498C0F10700052803D3FFE704200190A9
:1055100004E00498C0F107000190FFE701980390B0
:1055200004980430062803D8FFE70020009003E029
:10553000049803380090FFE70098029006980399BA
:10554000012202FA01F101390840029B98400599B5
:105550009A40013A1140084308B0704780B58EB0B8
:105560000D900C910D9800680C9901F0B1FA0B9018
:105570000D994868C9690691102101F0A9FA0C99A2
:105580000D9A5269114401F0A3FA014606980844A5
:105590000A900A980D9909694942884205DAFFE79D
:1055A0000D980069404205900FE00A980D9909692D
:1055B000884204DDFFE70D980069049002E00A9834
:1055C0000490FFE704980590FFE705980A900D9A6C
:1055D0000C9990685269891A01F07AFA40F6CC4128
:1055E00001F02EFA09900B980A9908440999084489
:1055F000089008980D9909694942884205DAFFE741
:105600000D980069404203900FE008980D990969D0
:10561000884204DDFFE70D980069029002E00898D7
:105620000290FFE702980390FFE7039808900D9817
:10563000C068012832DBFFE708980D998969401A94
:1056400040F6CC4101F0FCF9079007980D99C96824
:1056500088420DDDFFE70D99C8688969019140F620
:10566000CC4101F035FA014601980844089014E055
:1056700007980D99C968494288420DDAFFE70D99EC
:10568000C8688969009140F6CC4101F021FA0146D1
:105690000098401A0890FFE7FFE7FFE70A980D9986
:1056A000C86108980D9988610C980D99486108980F
:1056B0000EB080BD80B584B0DDF81CC0DDF818C028
:1056C0000390029101920093029803990860019857
:1056D0000399486000980399886006980399C86008
:1056E000079803990861039900204861039988612C
:1056F0000399C86100F052FF0399086204B080BDAD
:105700007047000082B00190019840F20801C2F297
:1057100000010968C90844F6D352C1F26202A1FB34
:105720000221890948430090FFE700BFFFE7009886
:10573000411E00910028F8D1FFE702B07047000039
:105740007047000080B582B0009000980138B0F139
:10575000807F03D3FFE70120019019E00098013812
:105760004EF21401CEF2000108604FF0FF300F211D
:1057700000F050FD4EF21801CEF20001002008604A
:105780004EF21002CEF20002072111600190FFE7F5
:10579000019802B080BD000080B5FCF7DFFE80BD3F
:1057A00080B596B00CA801902821FAF7C2FC0198A8
:1057B000002302930B930A9309930893079306938C
:1057C00005930493039301220C924FF480310D91C1
:1057D0000E9310920222139214914FF4E01115913E
:1057E000FDF7D8FA18B1FFE7FAF742FFFFE70F20FD
:1057F000079002210891002009904FF480620A92DC
:105800000B9007A8FDF712F918B1FFE7FAF730FF80
:10581000FFE7022003904FF40040059003A8FDF736
:1058200021F818B1FFE7FAF723FFFFE716B080BDB4
:105830007047000080B540F24420C2F20000FEF73D
:1058400075FA80BD83B002900191029800680090C3
:10585000029842F60041C4F20101884215D0FFE7E8
:105860000298B0F1804F10D0FFE7029840F200415B
:10587000C4F20001884208D0FFE7029840F6000118
:10588000C4F2000188420AD1FFE7009820F07000BE
:10589000009001984168009808430090FFE7029843
:1058A00042F60041C4F20101884215D0FFE7029898
:1058B000B0F1804F10D0FFE7029840F20041C4F2EF
:1058C0000001884208D0FFE7029840F60001C4F2C8
:1058D000000188420AD1FFE7009820F44070009050
:1058E0000198C168009808430090FFE7009820F0F5
:1058F0008000019949690843009000980299086066
:10590000019880680299C8620198006802998862CB
:10591000029842F60041C4F20101884205D1FFE736
:105920000198006902990863FFE702990120486124
:1059300003B0704784B0039002910192029800F086
:105940001F01012088400090009A0399086A904343
:1059500008620198029901F01F0100FA01F203990F
:10596000086A1043086204B07047000084B00390D6
:1059700002910192029800F01F01042088400090DB
:10598000009A0399086A904308620198029901F00D
:105990001F0100FA01F20399086A1043086204B07B
:1059A0007047000085B0049003910292019304981F
:1059B00080680090009820F47F400090039802993E
:1059C000019A41EA0221014300980843009000989F
:1059D0000499886005B0704783B0029001910298E5
:1059E00080680090009820F0700000900198009965
:1059F000084340F00700009000980299886003B0C7
:105A00007047000085B0049003910498006A0190EB
:105A10000499086A20F00100086204984068009028
:105A2000049880690290029820F070000290029819
:105A300020F0030002900398016802980843029046
:105A4000019820F0020001900398816801980843B2
:105A50000190049842F60041C4F2010188420ED13F
:105A6000FFE7019820F0080001900398C1680198B1
:105A700008430190019820F004000190FFE704988A
:105A800042F60041C4F20101884213D1FFE70098B9
:105A900020F480700090009820F40070009003982B
:105AA0004169009808430090039881690098084371
:105AB0000090FFE700980499486002980499886173
:105AC000039840680499486301980499086205B0F6
:105AD0007047000085B0049003910498006A01901B
